{
  "_format": "hh3-artifact-1",
  "contractName": "DAOActionExecutor",
  "sourceName": "contracts/DAOActionExecutor.sol",
  "abi": [
    {
      "inputs": [],
      "stateMutability": "nonpayable",
      "type": "constructor"
    },
    {
      "anonymous": false,
      "inputs": [
        {
          "indexed": true,
          "internalType": "address",
          "name": "target",
          "type": "address"
        },
        {
          "indexed": false,
          "internalType": "uint256",
          "name": "value",
          "type": "uint256"
        },
        {
          "indexed": false,
          "internalType": "bytes",
          "name": "data",
          "type": "bytes"
        },
        {
          "indexed": false,
          "internalType": "bytes",
          "name": "response",
          "type": "bytes"
        }
      ],
      "name": "ExecutedProposal",
      "type": "event"
    },
    {
      "anonymous": false,
      "inputs": [
        {
          "indexed": true,
          "internalType": "address",
          "name": "previousOwner",
          "type": "address"
        },
        {
          "indexed": true,
          "internalType": "address",
          "name": "newOwner",
          "type": "address"
        }
      ],
      "name": "OwnershipTransferred",
      "type": "event"
    },
    {
      "inputs": [
        {
          "internalType": "address",
          "name": "target",
          "type": "address"
        },
        {
          "internalType": "uint256",
          "name": "value",
          "type": "uint256"
        },
        {
          "internalType": "bytes",
          "name": "data",
          "type": "bytes"
        }
      ],
      "name": "execute",
      "outputs": [
        {
          "internalType": "bytes",
          "name": "",
          "type": "bytes"
        }
      ],
      "stateMutability": "nonpayable",
      "type": "function"
    },
    {
      "inputs": [],
      "name": "owner",
      "outputs": [
        {
          "internalType": "address",
          "name": "",
          "type": "address"
        }
      ],
      "stateMutability": "view",
      "type": "function"
    },
    {
      "inputs": [
        {
          "internalType": "address",
          "name": "newOwner",
          "type": "address"
        }
      ],
      "name": "transferOwnership",
      "outputs": [],
      "stateMutability": "nonpayable",
      "type": "function"
    },
    {
      "stateMutability": "payable",
      "type": "receive"
    }
  ],
  "bytecode": "0x6080604052348015600e575f5ffd5b505f80546001600160a01b031916331790556104c78061002d5f395ff3fe608060405260043610610036575f3560e01c80638da5cb5b14610041578063b61d27f61461007c578063f2fde38b146100a8575f5ffd5b3661003d57005b5f5ffd5b34801561004c575f5ffd5b505f5461005f906001600160a01b031681565b6040516001600160a01b0390911681526020015b60405180910390f35b348015610087575f5ffd5b5061009b610096366004610352565b6100c9565b6040516100739190610403565b3480156100b3575f5ffd5b506100c76100c236600461041c565b61024f565b005b5f546060906001600160a01b0316331461011b5760405162461bcd60e51b815260206004820152600e60248201526d139bdd08185d5d1a1bdc9a5e995960921b60448201526064015b60405180910390fd5b6001600160a01b0385166101625760405162461bcd60e51b815260206004820152600e60248201526d125b9d985b1a59081d185c99d95d60921b6044820152606401610112565b5f5f866001600160a01b031686868660405161017f929190610435565b5f6040518083038185875af1925050503d805f81146101b9576040519150601f19603f3d011682016040523d82523d5f602084013e6101be565b606091505b5091509150816101fe5760405162461bcd60e51b815260206004820152600b60248201526a10d85b1b0819985a5b195960aa1b6044820152606401610112565b866001600160a01b03167fa5622e15cf91981e70f84696a91a61bbfb87860adceef9e0c897f17331d9678b8787878560405161023d9493929190610444565b60405180910390a29695505050505050565b5f546001600160a01b031633146102995760405162461bcd60e51b815260206004820152600e60248201526d139bdd08185d5d1a1bdc9a5e995960921b6044820152606401610112565b6001600160a01b0381166102de5760405162461bcd60e51b815260206004820152600c60248201526b5a65726f206164647265737360a01b6044820152606401610112565b5f80546040516001600160a01b03808516939216917f8be0079c531659141344cd1fd0a4f28419497f9722a3daafe3b4186f6b6457e091a35f80546001600160a01b0319166001600160a01b0392909216919091179055565b80356001600160a01b038116811461034d575f5ffd5b919050565b5f5f5f5f60608587031215610365575f5ffd5b61036e85610337565b935060208501359250604085013567ffffffffffffffff811115610390575f5ffd5b8501601f810187136103a0575f5ffd5b803567ffffffffffffffff8111156103b6575f5ffd5b8760208284010111156103c7575f5ffd5b949793965060200194505050565b5f81518084528060208401602086015e5f602082860101526020601f19601f83011685010191505092915050565b602081525f61041560208301846103d5565b9392505050565b5f6020828403121561042c575f5ffd5b61041582610337565b818382375f9101908152919050565b84815260606020820152826060820152828460808301375f608084830101525f601f19601f8501168201608083820301604084015261048660808201856103d5565b97965050505050505056fea264697066735822122085e4b1cffcdf55b6fba8e912c0501fbc1c688d60ad5c990b33344ad61ef0c6cc64736f6c634300081c0033",
  "linkReferences": {},
  "deployedLinkReferences": {},
  "immutableReferences": {},
  "inputSourceName": "project/contracts/DAOActionExecutor.sol",
  "buildInfoId": "solc-0_8_28-5e2fee6d9f6cd8cf2b7f655d33f30fe94df37679"
}