{
  "_format": "hh3-artifact-1",
  "contractName": "DAOActionExecutor",
  "sourceName": "contracts/DAOActionExecutor.sol",
  "abi": [
    {
      "anonymous": false,
      "inputs": [
        {
          "indexed": true,
          "internalType": "address",
          "name": "target",
          "type": "address"
        },
        {
          "indexed": false,
          "internalType": "uint256",
          "name": "value",
          "type": "uint256"
        },
        {
          "indexed": false,
          "internalType": "bytes",
          "name": "data",
          "type": "bytes"
        },
        {
          "indexed": false,
          "internalType": "bytes",
          "name": "response",
          "type": "bytes"
        }
      ],
      "name": "ExecutedProposal",
      "type": "event"
    },
    {
      "inputs": [
        {
          "internalType": "address",
          "name": "target",
          "type": "address"
        },
        {
          "internalType": "uint256",
          "name": "value",
          "type": "uint256"
        },
        {
          "internalType": "bytes",
          "name": "data",
          "type": "bytes"
        }
      ],
      "name": "execute",
      "outputs": [
        {
          "internalType": "bytes",
          "name": "",
          "type": "bytes"
        }
      ],
      "stateMutability": "nonpayable",
      "type": "function"
    },
    {
      "stateMutability": "payable",
      "type": "receive"
    }
  ],
  "bytecode": "0x60808060405234601557610267908161001a8239f35b5f80fdfe608080604052600436101561001c575b50361561001a575f80fd5b005b5f3560e01c63b61d27f60361000f5734610209576060366003190112610209576004356001600160a01b03811680820361020957602435926044359267ffffffffffffffff841161020957366023850112156102095783600401359167ffffffffffffffff831161020957602485019460248436920101116102095783156101d657505f809160405184878237878186810185815203925af1923d156101ce573d9367ffffffffffffffff85116101ba5760405194601f8101601f19908116603f0116860167ffffffffffffffff8111878210176101ba5760405285523d5f602087013e5b15610187576101839461016c6080847fa5622e15cf91981e70f84696a91a61bbfb87860adceef9e0c897f17331d9678b95604051958695865260606020870152816060870152838601375f848201830152601f01601f1916830183810382016040850152018661020d565b0390a260405191829160208352602083019061020d565b0390f35b60405162461bcd60e51b815260206004820152600b60248201526a10d85b1b0819985a5b195960aa1b6044820152606490fd5b634e487b7160e01b5f52604160045260245ffd5b606093610101565b62461bcd60e51b815260206004820152600e60248201526d125b9d985b1a59081d185c99d95d60921b6044820152606490fd5b5f80fd5b805180835260209291819084018484015e5f828201840152601f01601f191601019056fea26469706673582212202f6dab38327983a5abbb6d931f5281eef1b5e010c47f3d870d06d16397aa7c1964736f6c634300081c0033",
  "linkReferences": {},
  "deployedLinkReferences": {},
  "immutableReferences": {},
  "inputSourceName": "project/contracts/DAOActionExecutor.sol",
  "buildInfoId": "solc-0_8_28-f1f85cb2e23e14f16964b035c893bce5c6318f62"
}