{
  "_format": "hh3-artifact-1",
  "contractName": "DAOGovernance",
  "sourceName": "contracts/DOAGovernance.sol",
  "abi": [
    {
      "inputs": [],
      "stateMutability": "nonpayable",
      "type": "constructor"
    },
    {
      "inputs": [
        {
          "internalType": "address",
          "name": "owner",
          "type": "address"
        }
      ],
      "name": "OwnableInvalidOwner",
      "type": "error"
    },
    {
      "inputs": [
        {
          "internalType": "address",
          "name": "account",
          "type": "address"
        }
      ],
      "name": "OwnableUnauthorizedAccount",
      "type": "error"
    },
    {
      "inputs": [],
      "name": "ReentrancyGuardReentrantCall",
      "type": "error"
    },
    {
      "anonymous": false,
      "inputs": [
        {
          "indexed": true,
          "internalType": "address",
          "name": "previousOwner",
          "type": "address"
        },
        {
          "indexed": true,
          "internalType": "address",
          "name": "newOwner",
          "type": "address"
        }
      ],
      "name": "OwnershipTransferred",
      "type": "event"
    },
    {
      "anonymous": false,
      "inputs": [
        {
          "indexed": true,
          "internalType": "uint256",
          "name": "proposalId",
          "type": "uint256"
        },
        {
          "indexed": true,
          "internalType": "address",
          "name": "creator",
          "type": "address"
        },
        {
          "indexed": false,
          "internalType": "string",
          "name": "title",
          "type": "string"
        },
        {
          "indexed": false,
          "internalType": "string",
          "name": "description",
          "type": "string"
        },
        {
          "indexed": false,
          "internalType": "address",
          "name": "target",
          "type": "address"
        },
        {
          "indexed": false,
          "internalType": "bytes",
          "name": "data",
          "type": "bytes"
        },
        {
          "indexed": false,
          "internalType": "uint256",
          "name": "value",
          "type": "uint256"
        },
        {
          "indexed": false,
          "internalType": "uint256",
          "name": "expiryTime",
          "type": "uint256"
        }
      ],
      "name": "ProposalCreated",
      "type": "event"
    },
    {
      "anonymous": false,
      "inputs": [
        {
          "indexed": true,
          "internalType": "uint256",
          "name": "proposalId",
          "type": "uint256"
        },
        {
          "indexed": true,
          "internalType": "address",
          "name": "executor",
          "type": "address"
        },
        {
          "indexed": false,
          "internalType": "bytes",
          "name": "result",
          "type": "bytes"
        }
      ],
      "name": "ProposalExecuted",
      "type": "event"
    },
    {
      "anonymous": false,
      "inputs": [
        {
          "indexed": true,
          "internalType": "uint256",
          "name": "proposalId",
          "type": "uint256"
        }
      ],
      "name": "ProposalExpired",
      "type": "event"
    },
    {
      "anonymous": false,
      "inputs": [
        {
          "indexed": false,
          "internalType": "uint256",
          "name": "newQuorum",
          "type": "uint256"
        }
      ],
      "name": "QuorumUpdated",
      "type": "event"
    },
    {
      "anonymous": false,
      "inputs": [
        {
          "indexed": true,
          "internalType": "uint256",
          "name": "proposalId",
          "type": "uint256"
        },
        {
          "indexed": true,
          "internalType": "address",
          "name": "voter",
          "type": "address"
        },
        {
          "indexed": false,
          "internalType": "bool",
          "name": "support",
          "type": "bool"
        },
        {
          "indexed": false,
          "internalType": "uint256",
          "name": "weight",
          "type": "uint256"
        }
      ],
      "name": "VoteCast",
      "type": "event"
    },
    {
      "inputs": [
        {
          "internalType": "address",
          "name": "voter",
          "type": "address"
        }
      ],
      "name": "addVoter",
      "outputs": [],
      "stateMutability": "nonpayable",
      "type": "function"
    },
    {
      "inputs": [
        {
          "internalType": "uint256",
          "name": "proposalId",
          "type": "uint256"
        }
      ],
      "name": "canExecute",
      "outputs": [
        {
          "internalType": "bool",
          "name": "",
          "type": "bool"
        }
      ],
      "stateMutability": "view",
      "type": "function"
    },
    {
      "inputs": [
        {
          "internalType": "string",
          "name": "title",
          "type": "string"
        },
        {
          "internalType": "string",
          "name": "description",
          "type": "string"
        },
        {
          "internalType": "address",
          "name": "target",
          "type": "address"
        },
        {
          "internalType": "bytes",
          "name": "data",
          "type": "bytes"
        },
        {
          "internalType": "uint256",
          "name": "value",
          "type": "uint256"
        },
        {
          "internalType": "uint256",
          "name": "customExpiryTime",
          "type": "uint256"
        }
      ],
      "name": "createProposal",
      "outputs": [
        {
          "internalType": "uint256",
          "name": "",
          "type": "uint256"
        }
      ],
      "stateMutability": "nonpayable",
      "type": "function"
    },
    {
      "inputs": [
        {
          "internalType": "uint256",
          "name": "proposalId",
          "type": "uint256"
        }
      ],
      "name": "emergencyExecute",
      "outputs": [],
      "stateMutability": "nonpayable",
      "type": "function"
    },
    {
      "inputs": [
        {
          "internalType": "uint256",
          "name": "proposalId",
          "type": "uint256"
        }
      ],
      "name": "executeProposal",
      "outputs": [],
      "stateMutability": "nonpayable",
      "type": "function"
    },
    {
      "inputs": [
        {
          "internalType": "uint256",
          "name": "proposalId",
          "type": "uint256"
        }
      ],
      "name": "expireProposal",
      "outputs": [],
      "stateMutability": "nonpayable",
      "type": "function"
    },
    {
      "inputs": [
        {
          "internalType": "uint256",
          "name": "proposalId",
          "type": "uint256"
        }
      ],
      "name": "getProposal",
      "outputs": [
        {
          "internalType": "uint256",
          "name": "id",
          "type": "uint256"
        },
        {
          "internalType": "address",
          "name": "creator",
          "type": "address"
        },
        {
          "internalType": "string",
          "name": "title",
          "type": "string"
        },
        {
          "internalType": "string",
          "name": "description",
          "type": "string"
        },
        {
          "internalType": "address",
          "name": "target",
          "type": "address"
        },
        {
          "internalType": "bytes",
          "name": "data",
          "type": "bytes"
        },
        {
          "internalType": "uint256",
          "name": "value",
          "type": "uint256"
        },
        {
          "internalType": "uint256",
          "name": "expiryTime",
          "type": "uint256"
        },
        {
          "internalType": "uint256",
          "name": "forVotes",
          "type": "uint256"
        },
        {
          "internalType": "uint256",
          "name": "againstVotes",
          "type": "uint256"
        },
        {
          "internalType": "bool",
          "name": "executed",
          "type": "bool"
        },
        {
          "internalType": "bool",
          "name": "expired",
          "type": "bool"
        }
      ],
      "stateMutability": "view",
      "type": "function"
    },
    {
      "inputs": [
        {
          "internalType": "uint256",
          "name": "proposalId",
          "type": "uint256"
        }
      ],
      "name": "getProposalBasic",
      "outputs": [
        {
          "internalType": "uint256",
          "name": "id",
          "type": "uint256"
        },
        {
          "internalType": "address",
          "name": "creator",
          "type": "address"
        },
        {
          "internalType": "string",
          "name": "title",
          "type": "string"
        },
        {
          "internalType": "string",
          "name": "description",
          "type": "string"
        },
        {
          "internalType": "address",
          "name": "target",
          "type": "address"
        },
        {
          "internalType": "bytes",
          "name": "data",
          "type": "bytes"
        },
        {
          "internalType": "uint256",
          "name": "value",
          "type": "uint256"
        },
        {
          "internalType": "uint256",
          "name": "expiryTime",
          "type": "uint256"
        }
      ],
      "stateMutability": "view",
      "type": "function"
    },
    {
      "inputs": [
        {
          "internalType": "uint256",
          "name": "proposalId",
          "type": "uint256"
        }
      ],
      "name": "getProposalState",
      "outputs": [
        {
          "internalType": "string",
          "name": "",
          "type": "string"
        }
      ],
      "stateMutability": "view",
      "type": "function"
    },
    {
      "inputs": [
        {
          "internalType": "uint256",
          "name": "proposalId",
          "type": "uint256"
        }
      ],
      "name": "getProposalStatus",
      "outputs": [
        {
          "internalType": "bool",
          "name": "executed",
          "type": "bool"
        },
        {
          "internalType": "bool",
          "name": "expired",
          "type": "bool"
        }
      ],
      "stateMutability": "view",
      "type": "function"
    },
    {
      "inputs": [
        {
          "internalType": "uint256",
          "name": "proposalId",
          "type": "uint256"
        }
      ],
      "name": "getProposalVotes",
      "outputs": [
        {
          "internalType": "uint256",
          "name": "forVotes",
          "type": "uint256"
        },
        {
          "internalType": "uint256",
          "name": "againstVotes",
          "type": "uint256"
        }
      ],
      "stateMutability": "view",
      "type": "function"
    },
    {
      "inputs": [],
      "name": "getTotalProposals",
      "outputs": [
        {
          "internalType": "uint256",
          "name": "",
          "type": "uint256"
        }
      ],
      "stateMutability": "view",
      "type": "function"
    },
    {
      "inputs": [
        {
          "internalType": "uint256",
          "name": "proposalId",
          "type": "uint256"
        },
        {
          "internalType": "address",
          "name": "voter",
          "type": "address"
        }
      ],
      "name": "getVote",
      "outputs": [
        {
          "internalType": "bool",
          "name": "support",
          "type": "bool"
        },
        {
          "internalType": "uint256",
          "name": "weight",
          "type": "uint256"
        },
        {
          "internalType": "uint256",
          "name": "timestamp",
          "type": "uint256"
        }
      ],
      "stateMutability": "view",
      "type": "function"
    },
    {
      "inputs": [
        {
          "internalType": "uint256",
          "name": "proposalId",
          "type": "uint256"
        },
        {
          "internalType": "address",
          "name": "voter",
          "type": "address"
        }
      ],
      "name": "hasVoted",
      "outputs": [
        {
          "internalType": "bool",
          "name": "",
          "type": "bool"
        }
      ],
      "stateMutability": "view",
      "type": "function"
    },
    {
      "inputs": [
        {
          "internalType": "address",
          "name": "",
          "type": "address"
        }
      ],
      "name": "isVoter",
      "outputs": [
        {
          "internalType": "bool",
          "name": "",
          "type": "bool"
        }
      ],
      "stateMutability": "view",
      "type": "function"
    },
    {
      "inputs": [],
      "name": "owner",
      "outputs": [
        {
          "internalType": "address",
          "name": "",
          "type": "address"
        }
      ],
      "stateMutability": "view",
      "type": "function"
    },
    {
      "inputs": [],
      "name": "proposalThreshold",
      "outputs": [
        {
          "internalType": "uint256",
          "name": "",
          "type": "uint256"
        }
      ],
      "stateMutability": "view",
      "type": "function"
    },
    {
      "inputs": [
        {
          "internalType": "uint256",
          "name": "",
          "type": "uint256"
        }
      ],
      "name": "proposals",
      "outputs": [
        {
          "internalType": "uint256",
          "name": "id",
          "type": "uint256"
        },
        {
          "internalType": "address",
          "name": "creator",
          "type": "address"
        },
        {
          "internalType": "string",
          "name": "title",
          "type": "string"
        },
        {
          "internalType": "string",
          "name": "description",
          "type": "string"
        },
        {
          "internalType": "address",
          "name": "target",
          "type": "address"
        },
        {
          "internalType": "bytes",
          "name": "data",
          "type": "bytes"
        },
        {
          "internalType": "uint256",
          "name": "value",
          "type": "uint256"
        },
        {
          "internalType": "uint256",
          "name": "expiryTime",
          "type": "uint256"
        },
        {
          "internalType": "uint256",
          "name": "forVotes",
          "type": "uint256"
        },
        {
          "internalType": "uint256",
          "name": "againstVotes",
          "type": "uint256"
        },
        {
          "internalType": "bool",
          "name": "executed",
          "type": "bool"
        },
        {
          "internalType": "bool",
          "name": "expired",
          "type": "bool"
        }
      ],
      "stateMutability": "view",
      "type": "function"
    },
    {
      "inputs": [],
      "name": "quorum",
      "outputs": [
        {
          "internalType": "uint256",
          "name": "",
          "type": "uint256"
        }
      ],
      "stateMutability": "view",
      "type": "function"
    },
    {
      "inputs": [
        {
          "internalType": "address",
          "name": "voter",
          "type": "address"
        }
      ],
      "name": "removeVoter",
      "outputs": [],
      "stateMutability": "nonpayable",
      "type": "function"
    },
    {
      "inputs": [],
      "name": "renounceOwnership",
      "outputs": [],
      "stateMutability": "nonpayable",
      "type": "function"
    },
    {
      "inputs": [
        {
          "internalType": "uint256",
          "name": "newQuorum",
          "type": "uint256"
        }
      ],
      "name": "setQuorum",
      "outputs": [],
      "stateMutability": "nonpayable",
      "type": "function"
    },
    {
      "inputs": [
        {
          "internalType": "uint256",
          "name": "newPeriod",
          "type": "uint256"
        }
      ],
      "name": "setVotingPeriod",
      "outputs": [],
      "stateMutability": "nonpayable",
      "type": "function"
    },
    {
      "inputs": [
        {
          "internalType": "address",
          "name": "newOwner",
          "type": "address"
        }
      ],
      "name": "transferOwnership",
      "outputs": [],
      "stateMutability": "nonpayable",
      "type": "function"
    },
    {
      "inputs": [
        {
          "internalType": "uint256",
          "name": "proposalId",
          "type": "uint256"
        },
        {
          "internalType": "bool",
          "name": "support",
          "type": "bool"
        }
      ],
      "name": "vote",
      "outputs": [],
      "stateMutability": "nonpayable",
      "type": "function"
    },
    {
      "inputs": [],
      "name": "votingPeriod",
      "outputs": [
        {
          "internalType": "uint256",
          "name": "",
          "type": "uint256"
        }
      ],
      "stateMutability": "view",
      "type": "function"
    },
    {
      "stateMutability": "payable",
      "type": "receive"
    }
  ],
  "bytecode": "0x6080806040523460a1573315608e575f8054336001600160a01b0319821681178355916001600160a01b03909116907f8be0079c531659141344cd1fd0a4f28419497f9722a3daafe3b4186f6b6457e09080a3600180555f600255600360055562093a806006556001600755335f52600460205260405f20600160ff19825416179055611cc290816100a68239f35b631e4fbdf760e01b5f525f60045260245ffd5b5f80fdfe608080604052600436101561001c575b50361561001a575f80fd5b005b5f3560e01c908163013cf08b146113a65750806302a251a3146113895780630d61b519146111ca5780631703a018146111ad5780631a5007dd14611190578063401853b71461113557806343859632146110ca57806347c6614014611076578063715018a61461101f57806385c747f914610afe57806386c1ff6814610a6c5780638da5cb5b14610a455780639080936f146109f45780639f83c4b2146108e8578063a7771ee3146108ab578063b58131b01461088e578063bc3f931f146107f1578063c1ba4e5914610747578063c7f758a814610665578063c9d27afe14610514578063cc63604a146104ce578063e1b526b014610413578063e8d9510a146102ed578063ea0217cf14610268578063f2fde38b146101e35763f4ab9adf14610146575f61000f565b346101df5760203660031901126101df5761015f611613565b610167611c66565b6001600160a01b03168015610190575f908152600460205260409020805460ff19166001179055005b60405162461bcd60e51b815260206004820152602160248201527f476f7665726e616e63653a20696e76616c696420766f746572206164647265736044820152607360f81b6064820152608490fd5b5f80fd5b346101df5760203660031901126101df576101fc611613565b610204611c66565b6001600160a01b03168015610255575f80546001600160a01b03198116831782556001600160a01b0316907f8be0079c531659141344cd1fd0a4f28419497f9722a3daafe3b4186f6b6457e09080a3005b631e4fbdf760e01b5f525f60045260245ffd5b346101df5760203660031901126101df57600435610284611c66565b801561028f57600655005b60405162461bcd60e51b815260206004820152603060248201527f476f7665726e616e63653a20766f74696e6720706572696f64206d757374206260448201526f0652067726561746572207468616e20360841b6064820152608490fd5b346101df5760203660031901126101df57600435610309611c66565b6002548111158061040a575b61031e906116ef565b805f52600360205260405f20600a81019081549060ff82166103c55760ff19909116600117909155600481015460068201546040515f9384936001600160a01b031692908290610372908290600501611851565b03925af1906103886103826118bb565b926118ea565b7fc98fbf8f20b11b050a9541d12aee1c11fcd31e8e42975cc885fb3d33a6accc8260405160208152806103c03395602083019061154d565b0390a3005b60405162461bcd60e51b815260206004820152601c60248201527f476f7665726e616e63653a20616c7265616479206578656375746564000000006044820152606490fd5b50801515610315565b346101df5760203660031901126101df57600435335f52600460205261043f60ff60405f205416611699565b600254811115806104c5575b610454906116ef565b805f52600360205260405f20610100600a820191610497600784549261047d60ff851615611747565b61048d60ff8560081c16156117a1565b01544210156117f9565b61ff0019161790557f88e53c486703527139dfc8d97a1e559d9bd93d3f9d52cda4e06564111e7a26435f80a2005b5080151561044b565b346101df5760203660031901126101df5760206105016004356002548111158061050b575b6104fc906116ef565b611bdf565b6040519015158152f35b508015156104f3565b346101df5760403660031901126101df5760043560243580151581036101df57335f52600460205261054c60ff60405f205416611699565b6002548211158061065c575b610561906116ef565b815f526003602052600760405f2061058f60ff600a83015461058582821615611747565b60081c16156117a1565b0154421015610617575f828152600360209081526040808320338452600b0190915290205460ff166105d2576105cc916105c7611c46565b611ab9565b60018055005b60405162461bcd60e51b815260206004820152601960248201527f476f7665726e616e63653a20616c726561647920766f746564000000000000006044820152606490fd5b60405162461bcd60e51b815260206004820152601c60248201527f476f7665726e616e63653a2070726f706f73616c2065787069726564000000006044820152606490fd5b50811515610558565b346101df5760203660031901126101df576004356002548111158061073e575b61068e906116ef565b5f52600360205260405f20805461073a60018060a01b036001840154169160018060a01b0360048501541690600685015460078601546008870154906009880154926005600a8a0154966040519a6106f48c6106ed816002850161148e565b038d61152b565b610723604051916107138361070c816003850161148e565b038461152b565b61070c604051809681930161148e565b6040519b8c9b60ff808c60081c169b16998d611571565b0390f35b50801515610685565b346101df5760203660031901126101df57600435610763611c66565b801561079a576020817ff18f88786aae85a652aadb99a82462616489a33370c9bcc7b245906812ef7cd192600555604051908152a1005b60405162461bcd60e51b815260206004820152602960248201527f476f7665726e616e63653a2071756f72756d206d75737420626520677265617460448201526806572207468616e20360bc1b6064820152608490fd5b346101df5760403660031901126101df5760043561080d6115fd565b9060025481111580610885575b610823906116ef565b5f526003602052600c60405f20019060018060a01b03165f52602052606060405f2060408051916108538361150f565b60ff81541615159283815260026001830154928360208401520154928391015260405192835260208301526040820152f35b5080151561081a565b346101df575f3660031901126101df576020600754604051908152f35b346101df5760203660031901126101df576001600160a01b036108cc611613565b165f526004602052602060ff60405f2054166040519015158152f35b346101df5760203660031901126101df57600435600254811115806109eb575b610911906116ef565b5f52600360205260405f20805460018060a01b036001830154169160018060a01b03600482015416906109dc60068201549260056109c96007850154946109bb60405161096c81610965816002870161148e565b038261152b565b61099b6040519361098b85610984816003850161148e565b038661152b565b610984604051809881930161148e565b6040519a8b9a8b5260208b015261010060408b01526101008a019061154d565b9088820360608a015261154d565b91608087015285820360a087015261154d565b9160c084015260e08301520390f35b50801515610908565b346101df5760203660031901126101df5761073a610a2860043560025481111580610a3c575b610a23906116ef565b6119b7565b60405191829160208352602083019061154d565b50801515610a1a565b346101df575f3660031901126101df575f546040516001600160a01b039091168152602090f35b346101df5760203660031901126101df57610a85611613565b610a8d611c66565b5f546001600160a01b0391821691168114610ab9575f908152600460205260409020805460ff19169055005b60405162461bcd60e51b815260206004820152601f60248201527f476f7665726e616e63653a2063616e6e6f742072656d6f7665206f776e6572006044820152606490fd5b346101df5760c03660031901126101df5760043567ffffffffffffffff81116101df57610b2f90369060040161167b565b60243567ffffffffffffffff81116101df57610b4f90369060040161167b565b6044356001600160a01b0381169291908390036101df5760643567ffffffffffffffff81116101df57366023820112156101df57610b97903690602481600401359101611645565b906084359160a435335f526004602052610bb760ff60405f205416611699565b8515610fcf578015610fbc57935b42851115610f61576002545f198114610f4d576001019485600255855f52600360205260405f20968688556001880160018060a01b0333166bffffffffffffffffffffffff60a01b82541617905560028801835167ffffffffffffffff8111610e6157610c3c81610c368454611456565b84611943565b6020601f8211600114610eed579080610c69925f91610ee2575b508160011b915f199060031b1c19161790565b90555b60038801855167ffffffffffffffff8111610e6157610c8f81610c368454611456565b6020601f8211600114610e80579080610cbb925f91610e7557508160011b915f199060031b1c19161790565b90555b6004880180546001600160a01b0319168217905583519460058901949067ffffffffffffffff8711610e615760209986610d0389610cfd8d9a54611456565b83611943565b8b98601f8111600114610dd057610d9992610dac96959492610d5e83600a947f39b998dd2bcae3c0b851e151ea9488ef0bde8a3654d8c808d40430836268dc019d9e5f91610dc557508160011b915f199060031b1c19161790565b90555b8b60068201558760078201550161ffff198154169055610d8c6040519760c0895260c089019061154d565b908782038d89015261154d565b916040860152848203606086015261154d565b94608083015260a08201528033940390a3604051908152f35b90508801515f610c56565b601f19811699825f52805f209a5f5b818110610e475750926001837f39b998dd2bcae3c0b851e151ea9488ef0bde8a3654d8c808d40430836268dc019c9d610d999794600a96610dac9c9b9a9810610e2f575b5050811b019055610d61565b8901515f1960f88460031b161c191690555f80610e23565b828801518d556001909c019b8e9b50918f01918f01610ddf565b634e487b7160e01b5f52604160045260245ffd5b90508801518c610c56565b601f19821690835f52805f20915f5b8a828210610eca5750509083600194939210610eb2575b5050811b019055610cbe565b8901515f1960f88460031b161c191690558b80610ea6565b60018495602093958493015181550194019201610e8f565b90508601518c610c56565b601f19821690835f52805f20915f5b818110610f3557509083600194939210610f1d575b5050811b019055610c6c565b8701515f1960f88460031b161c191690558b80610f11565b9192602060018192868c015181550194019201610efc565b634e487b7160e01b5f52601160045260245ffd5b60405162461bcd60e51b815260206004820152602d60248201527f476f7665726e616e63653a206578706972792074696d65206d7573742062652060448201526c696e207468652066757475726560981b6064820152608490fd5b50610fc960065442611936565b93610bc5565b60405162461bcd60e51b815260206004820152602260248201527f476f7665726e616e63653a20696e76616c696420746172676574206164647265604482015261737360f01b6064820152608490fd5b346101df575f3660031901126101df57611037611c66565b5f80546001600160a01b0319811682556001600160a01b03167f8be0079c531659141344cd1fd0a4f28419497f9722a3daafe3b4186f6b6457e08280a3005b346101df5760203660031901126101df57600435600254811115806110c1575b61109f906116ef565b5f5260036020526040805f206009600882015491015482519182526020820152f35b50801515611096565b346101df5760403660031901126101df576004356110e66115fd565b906002548111158061112c575b6110fc906116ef565b5f526003602052600b60405f20019060018060a01b03165f52602052602060ff60405f2054166040519015158152f35b508015156110f3565b346101df5760203660031901126101df5760043560025481111580611187575b61115e906116ef565b5f5260036020526040600a815f20015460ff8251918181161515835260081c1615156020820152f35b50801515611155565b346101df575f3660031901126101df576020600254604051908152f35b346101df575f3660031901126101df576020600554604051908152f35b346101df5760203660031901126101df57600435335f5260046020526111f660ff60405f205416611699565b60025481111580611380575b61120b906116ef565b611213611c46565b805f52600360205260405f20600a81019081549061123460ff831615611747565b61124460ff8360081c16156117a1565b61125460078201544210156117f9565b6008810154600554811061133b57600982015410156112f65760ff19909116600117909155600481015460068201546040515f9384936001600160a01b0316929082906112a5908290600501611851565b03925af1906112b56103826118bb565b7fc98fbf8f20b11b050a9541d12aee1c11fcd31e8e42975cc885fb3d33a6accc8260405160208152806112ed3395602083019061154d565b0390a360018055005b60405162461bcd60e51b815260206004820152601f60248201527f476f7665726e616e63653a2070726f706f73616c206e6f7420706173736564006044820152606490fd5b60405162461bcd60e51b815260206004820152601e60248201527f476f7665726e616e63653a2071756f72756d206e6f74207265616368656400006044820152606490fd5b50801515611202565b346101df575f3660031901126101df576020600654604051908152f35b346101df5760203660031901126101df576004355f908152600360205260409020805460018201546001600160a01b03169161073a916113ed85610984816002860161148e565b604051916114028361070c816003850161148e565b60018060a01b0360048201541660405161142381610965816005870161148e565b6006830154600784015491600885015493600a6009870154960154976040519b8c9b60ff808c60081c169b16998d611571565b90600182811c92168015611484575b602083101461147057565b634e487b7160e01b5f52602260045260245ffd5b91607f1691611465565b5f929181549161149d83611456565b80835292600181169081156114f257506001146114b957505050565b5f9081526020812093945091925b8383106114d8575060209250010190565b6001816020929493945483858701015201910191906114c7565b915050602093945060ff929192191683830152151560051b010190565b6060810190811067ffffffffffffffff821117610e6157604052565b90601f8019910116810190811067ffffffffffffffff821117610e6157604052565b805180835260209291819084018484015e5f828201840152601f01601f1916010190565b9a979492936115ac6115d7956101609c999f9e9b98948e610180916115ba96825260018060a01b03166020820152816040820152019061154d565b8c810360608e01529061154d565b6001600160a01b0390921660808b015289820360a08b015261154d565b9860c088015260e087015261010086015261012085015215156101408401521515910152565b602435906001600160a01b03821682036101df57565b600435906001600160a01b03821682036101df57565b67ffffffffffffffff8111610e6157601f01601f191660200190565b92919261165182611629565b9161165f604051938461152b565b8294818452818301116101df578281602093845f960137010152565b9080601f830112156101df5781602061169693359101611645565b90565b156116a057565b60405162461bcd60e51b815260206004820152602160248201527f476f7665726e616e63653a2063616c6c6572206973206e6f74206120766f74656044820152603960f91b6064820152608490fd5b156116f657565b60405162461bcd60e51b815260206004820152602360248201527f476f7665726e616e63653a2070726f706f73616c20646f6573206e6f742065786044820152621a5cdd60ea1b6064820152608490fd5b1561174e57565b60405162461bcd60e51b815260206004820152602560248201527f476f7665726e616e63653a2070726f706f73616c20616c72656164792065786560448201526418dd5d195960da1b6064820152608490fd5b156117a857565b60405162461bcd60e51b8152602060048201526024808201527f476f7665726e616e63653a2070726f706f73616c20616c7265616479206578706044820152631a5c995960e21b6064820152608490fd5b1561180057565b60405162461bcd60e51b8152602060048201526024808201527f476f7665726e616e63653a2070726f706f73616c206e6f742065787069726564604482015263081e595d60e21b6064820152608490fd5b5f929181549161186083611456565b92600181169081156118a8575060011461187957505050565b90919293505f5260205f205f905b8382106118945750500190565b600181602092548486015201910190611887565b60ff191683525050811515909102019150565b3d156118e5573d906118cc82611629565b916118da604051938461152b565b82523d5f602084013e565b606090565b156118f157565b60405162461bcd60e51b815260206004820152601c60248201527f476f7665726e616e63653a20657865637574696f6e206661696c6564000000006044820152606490fd5b91908201809211610f4d57565b601f821161195057505050565b5f5260205f20906020601f840160051c83019310611988575b601f0160051c01905b81811061197d575050565b5f8155600101611972565b9091508190611969565b604051906119a160408361152b565b6007825266115e1c1a5c995960ca1b6020830152565b5f52600360205260405f20600a81015460ff8116611a915760081c60ff16611a88576007810154421015611a8857600881015460055481101580611a7b575b611a55576009611a0892015490611936565b611a3157604051611a1a60408261152b565b600781526650656e64696e6760c81b602082015290565b604051611a3f60408261152b565b600681526541637469766560d01b602082015290565b5050604051611a6560408261152b565b600681526514185cdcd95960d21b602082015290565b50600982015481116119f6565b50611696611992565b5050604051611aa160408261152b565b6008815267115e1958dd5d195960c21b602082015290565b805f52600360205260405f206007810154421015611ba757335f908152600b8201602052604090819020805460ff191660011790555192611af98461150f565b8015159384815260026020820160018152604083019042825260018060a01b0333165f52600c860160205260405f209351151560ff80198654169116178455516001840155519101555f14611b905760080180549060018201809211610f4d57555b604051918252600160208301527fcbdf6214089cba887ecbf35a0b6a734589959c9763342c756bb2a80ca2bc9f6e60403393a3565b60090180549060018201809211610f4d5755611b5b565b600a01805461ff00191661010017905590507f88e53c486703527139dfc8d97a1e559d9bd93d3f9d52cda4e06564111e7a26435f80a2565b5f52600360205260405f20600a81015460ff8116908115611c38575b50611c335760078101544210611c33576008810154906005548210611c2d57600901541015611c2957600190565b5f90565b50505f90565b505f90565b60ff915060081c165f611bfb565b600260015414611c57576002600155565b633ee5aeb560e01b5f5260045ffd5b5f546001600160a01b03163303611c7957565b63118cdaa760e01b5f523360045260245ffdfea2646970667358221220deba97175af0c91ee6e174f8280a87f095181b14aaf409d187cf016dbd0713ac64736f6c634300081c0033",
  "linkReferences": {},
  "deployedLinkReferences": {},
  "immutableReferences": {},
  "inputSourceName": "project/contracts/DOAGovernance.sol",
  "buildInfoId": "solc-0_8_28-d72344f324625c912d49edb16608cd1b7f910761"
}