{
  "_format": "hh3-artifact-1",
  "contractName": "MockUSDC",
  "sourceName": "contracts/MockUSDC.sol",
  "abi": [
    {
      "inputs": [],
      "stateMutability": "nonpayable",
      "type": "constructor"
    },
    {
      "inputs": [
        {
          "internalType": "address",
          "name": "spender",
          "type": "address"
        },
        {
          "internalType": "uint256",
          "name": "allowance",
          "type": "uint256"
        },
        {
          "internalType": "uint256",
          "name": "needed",
          "type": "uint256"
        }
      ],
      "name": "ERC20InsufficientAllowance",
      "type": "error"
    },
    {
      "inputs": [
        {
          "internalType": "address",
          "name": "sender",
          "type": "address"
        },
        {
          "internalType": "uint256",
          "name": "balance",
          "type": "uint256"
        },
        {
          "internalType": "uint256",
          "name": "needed",
          "type": "uint256"
        }
      ],
      "name": "ERC20InsufficientBalance",
      "type": "error"
    },
    {
      "inputs": [
        {
          "internalType": "address",
          "name": "approver",
          "type": "address"
        }
      ],
      "name": "ERC20InvalidApprover",
      "type": "error"
    },
    {
      "inputs": [
        {
          "internalType": "address",
          "name": "receiver",
          "type": "address"
        }
      ],
      "name": "ERC20InvalidReceiver",
      "type": "error"
    },
    {
      "inputs": [
        {
          "internalType": "address",
          "name": "sender",
          "type": "address"
        }
      ],
      "name": "ERC20InvalidSender",
      "type": "error"
    },
    {
      "inputs": [
        {
          "internalType": "address",
          "name": "spender",
          "type": "address"
        }
      ],
      "name": "ERC20InvalidSpender",
      "type": "error"
    },
    {
      "anonymous": false,
      "inputs": [
        {
          "indexed": true,
          "internalType": "address",
          "name": "owner",
          "type": "address"
        },
        {
          "indexed": true,
          "internalType": "address",
          "name": "spender",
          "type": "address"
        },
        {
          "indexed": false,
          "internalType": "uint256",
          "name": "value",
          "type": "uint256"
        }
      ],
      "name": "Approval",
      "type": "event"
    },
    {
      "anonymous": false,
      "inputs": [
        {
          "indexed": true,
          "internalType": "address",
          "name": "from",
          "type": "address"
        },
        {
          "indexed": true,
          "internalType": "address",
          "name": "to",
          "type": "address"
        },
        {
          "indexed": false,
          "internalType": "uint256",
          "name": "value",
          "type": "uint256"
        }
      ],
      "name": "Transfer",
      "type": "event"
    },
    {
      "inputs": [
        {
          "internalType": "address",
          "name": "owner",
          "type": "address"
        },
        {
          "internalType": "address",
          "name": "spender",
          "type": "address"
        }
      ],
      "name": "allowance",
      "outputs": [
        {
          "internalType": "uint256",
          "name": "",
          "type": "uint256"
        }
      ],
      "stateMutability": "view",
      "type": "function"
    },
    {
      "inputs": [
        {
          "internalType": "address",
          "name": "spender",
          "type": "address"
        },
        {
          "internalType": "uint256",
          "name": "value",
          "type": "uint256"
        }
      ],
      "name": "approve",
      "outputs": [
        {
          "internalType": "bool",
          "name": "",
          "type": "bool"
        }
      ],
      "stateMutability": "nonpayable",
      "type": "function"
    },
    {
      "inputs": [
        {
          "internalType": "address",
          "name": "account",
          "type": "address"
        }
      ],
      "name": "balanceOf",
      "outputs": [
        {
          "internalType": "uint256",
          "name": "",
          "type": "uint256"
        }
      ],
      "stateMutability": "view",
      "type": "function"
    },
    {
      "inputs": [
        {
          "internalType": "uint256",
          "name": "amount",
          "type": "uint256"
        }
      ],
      "name": "burn",
      "outputs": [],
      "stateMutability": "nonpayable",
      "type": "function"
    },
    {
      "inputs": [],
      "name": "decimals",
      "outputs": [
        {
          "internalType": "uint8",
          "name": "",
          "type": "uint8"
        }
      ],
      "stateMutability": "view",
      "type": "function"
    },
    {
      "inputs": [],
      "name": "faucet",
      "outputs": [],
      "stateMutability": "nonpayable",
      "type": "function"
    },
    {
      "inputs": [
        {
          "internalType": "address",
          "name": "to",
          "type": "address"
        },
        {
          "internalType": "uint256",
          "name": "amount",
          "type": "uint256"
        }
      ],
      "name": "mint",
      "outputs": [],
      "stateMutability": "nonpayable",
      "type": "function"
    },
    {
      "inputs": [],
      "name": "name",
      "outputs": [
        {
          "internalType": "string",
          "name": "",
          "type": "string"
        }
      ],
      "stateMutability": "view",
      "type": "function"
    },
    {
      "inputs": [],
      "name": "symbol",
      "outputs": [
        {
          "internalType": "string",
          "name": "",
          "type": "string"
        }
      ],
      "stateMutability": "view",
      "type": "function"
    },
    {
      "inputs": [],
      "name": "totalSupply",
      "outputs": [
        {
          "internalType": "uint256",
          "name": "",
          "type": "uint256"
        }
      ],
      "stateMutability": "view",
      "type": "function"
    },
    {
      "inputs": [
        {
          "internalType": "address",
          "name": "to",
          "type": "address"
        },
        {
          "internalType": "uint256",
          "name": "value",
          "type": "uint256"
        }
      ],
      "name": "transfer",
      "outputs": [
        {
          "internalType": "bool",
          "name": "",
          "type": "bool"
        }
      ],
      "stateMutability": "nonpayable",
      "type": "function"
    },
    {
      "inputs": [
        {
          "internalType": "address",
          "name": "from",
          "type": "address"
        },
        {
          "internalType": "address",
          "name": "to",
          "type": "address"
        },
        {
          "internalType": "uint256",
          "name": "value",
          "type": "uint256"
        }
      ],
      "name": "transferFrom",
      "outputs": [
        {
          "internalType": "bool",
          "name": "",
          "type": "bool"
        }
      ],
      "stateMutability": "nonpayable",
      "type": "function"
    }
  ],
  "bytecode": "0x6080604052346103ab57604080519081016001600160401b038111828210176102be57604090815260098252684d6f636b205553444360b81b602083015280519081016001600160401b038111828210176102be5760405260058152646d5553444360d81b602082015281516001600160401b0381116102be57600354600181811c911680156103a1575b60208210146102a057601f811161033e575b50602092601f82116001146102dd57928192935f926102d2575b50508160011b915f199060031b1c1916176003555b80516001600160401b0381116102be57600454600181811c911680156102b4575b60208210146102a057601f811161023d575b50602091601f82116001146101dd579181925f926101d2575b50508160011b915f199060031b1c1916176004555b600660ff19600554161760055533156101bf5760025464e8d4a5100081018091116101ab57600255335f525f60205260405f2064e8d4a51000815401905560405164e8d4a5100081525f7fddf252ad1be2c89b69c2b068fc378daa952ba7f163c4a11628f55a4df523b3ef60203393a360405161079a90816103b08239f35b634e487b7160e01b5f52601160045260245ffd5b63ec442f0560e01b5f525f60045260245ffd5b015190505f80610117565b601f1982169260045f52805f20915f5b8581106102255750836001951061020d575b505050811b0160045561012c565b01515f1960f88460031b161c191690555f80806101ff565b919260206001819286850151815501940192016101ed565b60045f527f8a35acfbc15ff81a39ae7d344fd709f28e8600b4aa8c65c6b64bfe7fe36bd19b601f830160051c81019160208410610296575b601f0160051c01905b81811061028b57506100fe565b5f815560010161027e565b9091508190610275565b634e487b7160e01b5f52602260045260245ffd5b90607f16906100ec565b634e487b7160e01b5f52604160045260245ffd5b015190505f806100b6565b601f1982169360035f52805f20915f5b868110610326575083600195961061030e575b505050811b016003556100cb565b01515f1960f88460031b161c191690555f8080610300565b919260206001819286850151815501940192016102ed565b60035f527fc2575a0e9e593c00f959f8c92f12db2869c3395a3b0502d05e2516446f71f85b601f830160051c81019160208410610397575b601f0160051c01905b81811061038c575061009c565b5f815560010161037f565b9091508190610376565b90607f169061008a565b5f80fdfe6080806040526004361015610012575f80fd5b5f3560e01c90816306fdde031461052357508063095ea7b3146104a157806318160ddd1461048457806323b872dd146103a5578063313ce5671461038557806340c10f191461035057806342966c68146102b057806370a082311461027957806395d89b411461015e578063a9059cbb1461012d578063dd62ed3e146100dd5763de5f72fd146100a0575f80fd5b346100d9575f3660031901126100d95733156100c6576100c4633b9aca00336106df565b005b63ec442f0560e01b5f525f60045260245ffd5b5f80fd5b346100d95760403660031901126100d9576100f661061c565b6100fe610632565b6001600160a01b039182165f908152600160209081526040808320949093168252928352819020549051908152f35b346100d95760403660031901126100d95761015361014961061c565b6024359033610648565b602060405160018152f35b346100d9575f3660031901126100d9576040515f6004548060011c9060018116801561026f575b60208310811461025b5782855290811561023f57506001146101ea575b50819003601f01601f191681019067ffffffffffffffff8211818310176101d6576101d2829182604052826105f2565b0390f35b634e487b7160e01b5f52604160045260245ffd5b905060045f527f8a35acfbc15ff81a39ae7d344fd709f28e8600b4aa8c65c6b64bfe7fe36bd19b5f905b828210610229575060209150820101826101a2565b6001816020925483858801015201910190610214565b90506020925060ff191682840152151560051b820101826101a2565b634e487b7160e01b5f52602260045260245ffd5b91607f1691610185565b346100d95760203660031901126100d9576001600160a01b0361029a61061c565b165f525f602052602060405f2054604051908152f35b346100d95760203660031901126100d957600435331561033d57335f525f60205260405f20548181106103245790805f923384528360205203604083205580600254036002556040519081527fddf252ad1be2c89b69c2b068fc378daa952ba7f163c4a11628f55a4df523b3ef60203392a3005b63391434e360e21b5f523360045260245260445260645ffd5b634b637e8f60e11b5f525f60045260245ffd5b346100d95760403660031901126100d95761036961061c565b6001600160a01b038116156100c6576100c490602435906106df565b346100d9575f3660031901126100d957602060ff60055416604051908152f35b346100d95760603660031901126100d9576103be61061c565b6103c6610632565b6001600160a01b0382165f818152600160209081526040808320338452909152902054909260443592915f198110610404575b506101539350610648565b83811061046957841561045657331561044357610153945f52600160205260405f2060018060a01b0333165f526020528360405f2091039055846103f9565b634a1406b160e11b5f525f60045260245ffd5b63e602df0560e01b5f525f60045260245ffd5b8390637dc7a0d960e11b5f523360045260245260445260645ffd5b346100d9575f3660031901126100d9576020600254604051908152f35b346100d95760403660031901126100d9576104ba61061c565b602435903315610456576001600160a01b031690811561044357335f52600160205260405f20825f526020528060405f20556040519081527f8c5be1e5ebec7d5bd14f71427d1e84f3dd0314c0f7b2291e5b200ac8c7c3b92560203392a3602060405160018152f35b346100d9575f3660031901126100d9575f6003548060011c906001811680156105e8575b60208310811461025b5782855290811561023f57506001146105935750819003601f01601f191681019067ffffffffffffffff8211818310176101d6576101d2829182604052826105f2565b905060035f527fc2575a0e9e593c00f959f8c92f12db2869c3395a3b0502d05e2516446f71f85b5f905b8282106105d2575060209150820101826101a2565b60018160209254838588010152019101906105bd565b91607f1691610547565b602060409281835280519182918282860152018484015e5f828201840152601f01601f1916010190565b600435906001600160a01b03821682036100d957565b602435906001600160a01b03821682036100d957565b6001600160a01b031690811561033d576001600160a01b03169182156100c657815f525f60205260405f20548181106106c657817fddf252ad1be2c89b69c2b068fc378daa952ba7f163c4a11628f55a4df523b3ef92602092855f525f84520360405f2055845f525f825260405f20818154019055604051908152a3565b8263391434e360e21b5f5260045260245260445260645ffd5b60025490828201809211610750576002919091556001600160a01b0316905f907fddf252ad1be2c89b69c2b068fc378daa952ba7f163c4a11628f55a4df523b3ef906020908461073b5780600254036002555b604051908152a3565b84845283825260408420818154019055610732565b634e487b7160e01b5f52601160045260245ffdfea26469706673582212206324e74b11ab66f3e8d16938531037fe0f742f0e73b79091e1414b478ee7043f64736f6c634300081c0033",
  "linkReferences": {},
  "deployedLinkReferences": {},
  "immutableReferences": {},
  "inputSourceName": "project/contracts/MockUSDC.sol",
  "buildInfoId": "solc-0_8_28-2135912ba75bae9e01ec477cc4850e6ceca9a04e"
}